{
  "contractName": "Exchange",
  "abi": [
    {
      "constant": true,
      "inputs": [],
      "name": "tokenTransferProxy",
      "outputs": [
        {
          "name": "",
          "type": "address"
        }
      ],
      "payable": false,
      "stateMutability": "view",
      "type": "function"
    },
    {
      "constant": true,
      "inputs": [
        {
          "name": "target",
          "type": "address"
        },
        {
          "name": "calldata",
          "type": "bytes"
        },
        {
          "name": "extradata",
          "type": "bytes"
        }
      ],
      "name": "staticCall",
      "outputs": [
        {
          "name": "result",
          "type": "bool"
        }
      ],
      "payable": false,
      "stateMutability": "view",
      "type": "function"
    },
    {
      "constant": false,
      "inputs": [
        {
          "name": "newMinimumMakerProtocolFee",
          "type": "uint256"
        }
      ],
      "name": "changeMinimumMakerProtocolFee",
      "outputs": [],
      "payable": false,
      "stateMutability": "nonpayable",
      "type": "function"
    },
    {
      "constant": false,
      "inputs": [
        {
          "name": "newMinimumTakerProtocolFee",
          "type": "uint256"
        }
      ],
      "name": "changeMinimumTakerProtocolFee",
      "outputs": [],
      "payable": false,
      "stateMutability": "nonpayable",
      "type": "function"
    },
    {
      "constant": true,
      "inputs": [],
      "name": "minimumTakerProtocolFee",
      "outputs": [
        {
          "name": "",
          "type": "uint256"
        }
      ],
      "payable": false,
      "stateMutability": "view",
      "type": "function"
    },
    {
      "constant": false,
      "inputs": [
        {
          "name": "newProtocolFeeRecipient",
          "type": "address"
        }
      ],
      "name": "changeProtocolFeeRecipient",
      "outputs": [],
      "payable": false,
      "stateMutability": "nonpayable",
      "type": "function"
    },
    {
      "constant": true,
      "inputs": [],
      "name": "protocolFeeRecipient",
      "outputs": [
        {
          "name": "",
          "type": "address"
        }
      ],
      "payable": false,
      "stateMutability": "view",
      "type": "function"
    },
    {
      "constant": false,
      "inputs": [],
      "name": "renounceOwnership",
      "outputs": [],
      "payable": false,
      "stateMutability": "nonpayable",
      "type": "function"
    },
    {
      "constant": true,
      "inputs": [],
      "name": "registry",
      "outputs": [
        {
          "name": "",
          "type": "address"
        }
      ],
      "payable": false,
      "stateMutability": "view",
      "type": "function"
    },
    {
      "constant": true,
      "inputs": [],
      "name": "minimumMakerProtocolFee",
      "outputs": [
        {
          "name": "",
          "type": "uint256"
        }
      ],
      "payable": false,
      "stateMutability": "view",
      "type": "function"
    },
    {
      "constant": true,
      "inputs": [
        {
          "name": "",
          "type": "bytes32"
        }
      ],
      "name": "cancelledOrFinalized",
      "outputs": [
        {
          "name": "",
          "type": "bool"
        }
      ],
      "payable": false,
      "stateMutability": "view",
      "type": "function"
    },
    {
      "constant": true,
      "inputs": [],
      "name": "owner",
      "outputs": [
        {
          "name": "",
          "type": "address"
        }
      ],
      "payable": false,
      "stateMutability": "view",
      "type": "function"
    },
    {
      "constant": true,
      "inputs": [],
      "name": "exchangeToken",
      "outputs": [
        {
          "name": "",
          "type": "address"
        }
      ],
      "payable": false,
      "stateMutability": "view",
      "type": "function"
    },
    {
      "constant": true,
      "inputs": [],
      "name": "INVERSE_BASIS_POINT",
      "outputs": [
        {
          "name": "",
          "type": "uint256"
        }
      ],
      "payable": false,
      "stateMutability": "view",
      "type": "function"
    },
    {
      "constant": true,
      "inputs": [
        {
          "name": "",
          "type": "bytes32"
        }
      ],
      "name": "approvedOrders",
      "outputs": [
        {
          "name": "",
          "type": "bool"
        }
      ],
      "payable": false,
      "stateMutability": "view",
      "type": "function"
    },
    {
      "constant": false,
      "inputs": [
        {
          "name": "newOwner",
          "type": "address"
        }
      ],
      "name": "transferOwnership",
      "outputs": [],
      "payable": false,
      "stateMutability": "nonpayable",
      "type": "function"
    },
    {
      "anonymous": false,
      "inputs": [
        {
          "indexed": true,
          "name": "hash",
          "type": "bytes32"
        },
        {
          "indexed": false,
          "name": "exchange",
          "type": "address"
        },
        {
          "indexed": true,
          "name": "maker",
          "type": "address"
        },
        {
          "indexed": false,
          "name": "taker",
          "type": "address"
        },
        {
          "indexed": false,
          "name": "makerRelayerFee",
          "type": "uint256"
        },
        {
          "indexed": false,
          "name": "takerRelayerFee",
          "type": "uint256"
        },
        {
          "indexed": false,
          "name": "makerProtocolFee",
          "type": "uint256"
        },
        {
          "indexed": false,
          "name": "takerProtocolFee",
          "type": "uint256"
        },
        {
          "indexed": true,
          "name": "feeRecipient",
          "type": "address"
        },
        {
          "indexed": false,
          "name": "feeMethod",
          "type": "uint8"
        },
        {
          "indexed": false,
          "name": "side",
          "type": "uint8"
        },
        {
          "indexed": false,
          "name": "saleKind",
          "type": "uint8"
        },
        {
          "indexed": false,
          "name": "target",
          "type": "address"
        }
      ],
      "name": "OrderApprovedPartOne",
      "type": "event"
    },
    {
      "anonymous": false,
      "inputs": [
        {
          "indexed": true,
          "name": "hash",
          "type": "bytes32"
        },
        {
          "indexed": false,
          "name": "howToCall",
          "type": "uint8"
        },
        {
          "indexed": false,
          "name": "calldata",
          "type": "bytes"
        },
        {
          "indexed": false,
          "name": "replacementPattern",
          "type": "bytes"
        },
        {
          "indexed": false,
          "name": "staticTarget",
          "type": "address"
        },
        {
          "indexed": false,
          "name": "staticExtradata",
          "type": "bytes"
        },
        {
          "indexed": false,
          "name": "paymentToken",
          "type": "address"
        },
        {
          "indexed": false,
          "name": "basePrice",
          "type": "uint256"
        },
        {
          "indexed": false,
          "name": "extra",
          "type": "uint256"
        },
        {
          "indexed": false,
          "name": "listingTime",
          "type": "uint256"
        },
        {
          "indexed": false,
          "name": "expirationTime",
          "type": "uint256"
        },
        {
          "indexed": false,
          "name": "salt",
          "type": "uint256"
        },
        {
          "indexed": false,
          "name": "orderbookInclusionDesired",
          "type": "bool"
        }
      ],
      "name": "OrderApprovedPartTwo",
      "type": "event"
    },
    {
      "anonymous": false,
      "inputs": [
        {
          "indexed": true,
          "name": "hash",
          "type": "bytes32"
        }
      ],
      "name": "OrderCancelled",
      "type": "event"
    },
    {
      "anonymous": false,
      "inputs": [
        {
          "indexed": false,
          "name": "buyHash",
          "type": "bytes32"
        },
        {
          "indexed": false,
          "name": "sellHash",
          "type": "bytes32"
        },
        {
          "indexed": true,
          "name": "maker",
          "type": "address"
        },
        {
          "indexed": true,
          "name": "taker",
          "type": "address"
        },
        {
          "indexed": false,
          "name": "price",
          "type": "uint256"
        },
        {
          "indexed": true,
          "name": "metadata",
          "type": "bytes32"
        }
      ],
      "name": "OrdersMatched",
      "type": "event"
    },
    {
      "anonymous": false,
      "inputs": [
        {
          "indexed": true,
          "name": "previousOwner",
          "type": "address"
        }
      ],
      "name": "OwnershipRenounced",
      "type": "event"
    },
    {
      "anonymous": false,
      "inputs": [
        {
          "indexed": true,
          "name": "previousOwner",
          "type": "address"
        },
        {
          "indexed": true,
          "name": "newOwner",
          "type": "address"
        }
      ],
      "name": "OwnershipTransferred",
      "type": "event"
    },
    {
      "constant": true,
      "inputs": [
        {
          "name": "array",
          "type": "bytes"
        },
        {
          "name": "desired",
          "type": "bytes"
        },
        {
          "name": "mask",
          "type": "bytes"
        }
      ],
      "name": "guardedArrayReplace",
      "outputs": [
        {
          "name": "",
          "type": "bytes"
        }
      ],
      "payable": false,
      "stateMutability": "pure",
      "type": "function"
    },
    {
      "constant": true,
      "inputs": [
        {
          "name": "arrToCopy",
          "type": "bytes"
        }
      ],
      "name": "testCopy",
      "outputs": [
        {
          "name": "",
          "type": "bytes"
        }
      ],
      "payable": false,
      "stateMutability": "pure",
      "type": "function"
    },
    {
      "constant": true,
      "inputs": [
        {
          "name": "addr",
          "type": "address"
        }
      ],
      "name": "testCopyAddress",
      "outputs": [
        {
          "name": "",
          "type": "bytes"
        }
      ],
      "payable": false,
      "stateMutability": "pure",
      "type": "function"
    },
    {
      "constant": true,
      "inputs": [
        {
          "name": "side",
          "type": "uint8"
        },
        {
          "name": "saleKind",
          "type": "uint8"
        },
        {
          "name": "basePrice",
          "type": "uint256"
        },
        {
          "name": "extra",
          "type": "uint256"
        },
        {
          "name": "listingTime",
          "type": "uint256"
        },
        {
          "name": "expirationTime",
          "type": "uint256"
        }
      ],
      "name": "calculateFinalPrice",
      "outputs": [
        {
          "name": "",
          "type": "uint256"
        }
      ],
      "payable": false,
      "stateMutability": "view",
      "type": "function"
    },
    {
      "constant": true,
      "inputs": [
        {
          "name": "addrs",
          "type": "address[7]"
        },
        {
          "name": "uints",
          "type": "uint256[9]"
        },
        {
          "name": "feeMethod",
          "type": "uint8"
        },
        {
          "name": "side",
          "type": "uint8"
        },
        {
          "name": "saleKind",
          "type": "uint8"
        },
        {
          "name": "howToCall",
          "type": "uint8"
        },
        {
          "name": "calldata",
          "type": "bytes"
        },
        {
          "name": "replacementPattern",
          "type": "bytes"
        },
        {
          "name": "staticExtradata",
          "type": "bytes"
        }
      ],
      "name": "hashOrder_",
      "outputs": [
        {
          "name": "",
          "type": "bytes32"
        }
      ],
      "payable": false,
      "stateMutability": "pure",
      "type": "function"
    },
    {
      "constant": true,
      "inputs": [
        {
          "name": "addrs",
          "type": "address[7]"
        },
        {
          "name": "uints",
          "type": "uint256[9]"
        },
        {
          "name": "feeMethod",
          "type": "uint8"
        },
        {
          "name": "side",
          "type": "uint8"
        },
        {
          "name": "saleKind",
          "type": "uint8"
        },
        {
          "name": "howToCall",
          "type": "uint8"
        },
        {
          "name": "calldata",
          "type": "bytes"
        },
        {
          "name": "replacementPattern",
          "type": "bytes"
        },
        {
          "name": "staticExtradata",
          "type": "bytes"
        }
      ],
      "name": "hashToSign_",
      "outputs": [
        {
          "name": "",
          "type": "bytes32"
        }
      ],
      "payable": false,
      "stateMutability": "pure",
      "type": "function"
    },
    {
      "constant": true,
      "inputs": [
        {
          "name": "addrs",
          "type": "address[7]"
        },
        {
          "name": "uints",
          "type": "uint256[9]"
        },
        {
          "name": "feeMethod",
          "type": "uint8"
        },
        {
          "name": "side",
          "type": "uint8"
        },
        {
          "name": "saleKind",
          "type": "uint8"
        },
        {
          "name": "howToCall",
          "type": "uint8"
        },
        {
          "name": "calldata",
          "type": "bytes"
        },
        {
          "name": "replacementPattern",
          "type": "bytes"
        },
        {
          "name": "staticExtradata",
          "type": "bytes"
        }
      ],
      "name": "validateOrderParameters_",
      "outputs": [
        {
          "name": "",
          "type": "bool"
        }
      ],
      "payable": false,
      "stateMutability": "view",
      "type": "function"
    },
    {
      "constant": true,
      "inputs": [
        {
          "name": "addrs",
          "type": "address[7]"
        },
        {
          "name": "uints",
          "type": "uint256[9]"
        },
        {
          "name": "feeMethod",
          "type": "uint8"
        },
        {
          "name": "side",
          "type": "uint8"
        },
        {
          "name": "saleKind",
          "type": "uint8"
        },
        {
          "name": "howToCall",
          "type": "uint8"
        },
        {
          "name": "calldata",
          "type": "bytes"
        },
        {
          "name": "replacementPattern",
          "type": "bytes"
        },
        {
          "name": "staticExtradata",
          "type": "bytes"
        },
        {
          "name": "v",
          "type": "uint8"
        },
        {
          "name": "r",
          "type": "bytes32"
        },
        {
          "name": "s",
          "type": "bytes32"
        }
      ],
      "name": "validateOrder_",
      "outputs": [
        {
          "name": "",
          "type": "bool"
        }
      ],
      "payable": false,
      "stateMutability": "view",
      "type": "function"
    },
    {
      "constant": false,
      "inputs": [
        {
          "name": "addrs",
          "type": "address[7]"
        },
        {
          "name": "uints",
          "type": "uint256[9]"
        },
        {
          "name": "feeMethod",
          "type": "uint8"
        },
        {
          "name": "side",
          "type": "uint8"
        },
        {
          "name": "saleKind",
          "type": "uint8"
        },
        {
          "name": "howToCall",
          "type": "uint8"
        },
        {
          "name": "calldata",
          "type": "bytes"
        },
        {
          "name": "replacementPattern",
          "type": "bytes"
        },
        {
          "name": "staticExtradata",
          "type": "bytes"
        },
        {
          "name": "orderbookInclusionDesired",
          "type": "bool"
        }
      ],
      "name": "approveOrder_",
      "outputs": [],
      "payable": false,
      "stateMutability": "nonpayable",
      "type": "function"
    },
    {
      "constant": false,
      "inputs": [
        {
          "name": "addrs",
          "type": "address[7]"
        },
        {
          "name": "uints",
          "type": "uint256[9]"
        },
        {
          "name": "feeMethod",
          "type": "uint8"
        },
        {
          "name": "side",
          "type": "uint8"
        },
        {
          "name": "saleKind",
          "type": "uint8"
        },
        {
          "name": "howToCall",
          "type": "uint8"
        },
        {
          "name": "calldata",
          "type": "bytes"
        },
        {
          "name": "replacementPattern",
          "type": "bytes"
        },
        {
          "name": "staticExtradata",
          "type": "bytes"
        },
        {
          "name": "v",
          "type": "uint8"
        },
        {
          "name": "r",
          "type": "bytes32"
        },
        {
          "name": "s",
          "type": "bytes32"
        }
      ],
      "name": "cancelOrder_",
      "outputs": [],
      "payable": false,
      "stateMutability": "nonpayable",
      "type": "function"
    },
    {
      "constant": true,
      "inputs": [
        {
          "name": "addrs",
          "type": "address[7]"
        },
        {
          "name": "uints",
          "type": "uint256[9]"
        },
        {
          "name": "feeMethod",
          "type": "uint8"
        },
        {
          "name": "side",
          "type": "uint8"
        },
        {
          "name": "saleKind",
          "type": "uint8"
        },
        {
          "name": "howToCall",
          "type": "uint8"
        },
        {
          "name": "calldata",
          "type": "bytes"
        },
        {
          "name": "replacementPattern",
          "type": "bytes"
        },
        {
          "name": "staticExtradata",
          "type": "bytes"
        }
      ],
      "name": "calculateCurrentPrice_",
      "outputs": [
        {
          "name": "",
          "type": "uint256"
        }
      ],
      "payable": false,
      "stateMutability": "view",
      "type": "function"
    },
    {
      "constant": true,
      "inputs": [
        {
          "name": "addrs",
          "type": "address[14]"
        },
        {
          "name": "uints",
          "type": "uint256[18]"
        },
        {
          "name": "feeMethodsSidesKindsHowToCalls",
          "type": "uint8[8]"
        },
        {
          "name": "calldataBuy",
          "type": "bytes"
        },
        {
          "name": "calldataSell",
          "type": "bytes"
        },
        {
          "name": "replacementPatternBuy",
          "type": "bytes"
        },
        {
          "name": "replacementPatternSell",
          "type": "bytes"
        },
        {
          "name": "staticExtradataBuy",
          "type": "bytes"
        },
        {
          "name": "staticExtradataSell",
          "type": "bytes"
        }
      ],
      "name": "ordersCanMatch_",
      "outputs": [
        {
          "name": "",
          "type": "bool"
        }
      ],
      "payable": false,
      "stateMutability": "view",
      "type": "function"
    },
    {
      "constant": true,
      "inputs": [
        {
          "name": "buyCalldata",
          "type": "bytes"
        },
        {
          "name": "buyReplacementPattern",
          "type": "bytes"
        },
        {
          "name": "sellCalldata",
          "type": "bytes"
        },
        {
          "name": "sellReplacementPattern",
          "type": "bytes"
        }
      ],
      "name": "orderCalldataCanMatch",
      "outputs": [
        {
          "name": "",
          "type": "bool"
        }
      ],
      "payable": false,
      "stateMutability": "pure",
      "type": "function"
    },
    {
      "constant": true,
      "inputs": [
        {
          "name": "addrs",
          "type": "address[14]"
        },
        {
          "name": "uints",
          "type": "uint256[18]"
        },
        {
          "name": "feeMethodsSidesKindsHowToCalls",
          "type": "uint8[8]"
        },
        {
          "name": "calldataBuy",
          "type": "bytes"
        },
        {
          "name": "calldataSell",
          "type": "bytes"
        },
        {
          "name": "replacementPatternBuy",
          "type": "bytes"
        },
        {
          "name": "replacementPatternSell",
          "type": "bytes"
        },
        {
          "name": "staticExtradataBuy",
          "type": "bytes"
        },
        {
          "name": "staticExtradataSell",
          "type": "bytes"
        }
      ],
      "name": "calculateMatchPrice_",
      "outputs": [
        {
          "name": "",
          "type": "uint256"
        }
      ],
      "payable": false,
      "stateMutability": "view",
      "type": "function"
    },
    {
      "constant": false,
      "inputs": [
        {
          "name": "addrs",
          "type": "address[14]"
        },
        {
          "name": "uints",
          "type": "uint256[18]"
        },
        {
          "name": "feeMethodsSidesKindsHowToCalls",
          "type": "uint8[8]"
        },
        {
          "name": "calldataBuy",
          "type": "bytes"
        },
        {
          "name": "calldataSell",
          "type": "bytes"
        },
        {
          "name": "replacementPatternBuy",
          "type": "bytes"
        },
        {
          "name": "replacementPatternSell",
          "type": "bytes"
        },
        {
          "name": "staticExtradataBuy",
          "type": "bytes"
        },
        {
          "name": "staticExtradataSell",
          "type": "bytes"
        },
        {
          "name": "vs",
          "type": "uint8[2]"
        },
        {
          "name": "rssMetadata",
          "type": "bytes32[5]"
        }
      ],
      "name": "atomicMatch_",
      "outputs": [],
      "payable": true,
      "stateMutability": "payable",
      "type": "function"
    }
  ],
  "bytecode": "0x608060405260008060006101000a81548160ff0219169083151502179055506000600655600060075533600060016101000a81548173ffffffffffffffffffffffffffffffffffffffff021916908373ffffffffffffffffffffffffffffffffffffffff16021790555061738e806100786000396000f30060806040526004361061018b576000357c0100000000000000000000000000000000000000000000000000000000900463ffffffff1680630eefdbad1461019057806310796a47146101e757806314350c24146102ce5780631a6b13e2146102fb578063239e83df1461032857806328a8ee68146104965780633464af6a146104c15780633e1e292a1461057d5780633f67ee0d1461065f578063514f0330146107fb578063562b2ebc1461083e57806360bef33a1461099157806363d36c0b14610b5a57806364df049e14610bd3578063715018a614610c2a57806371d02b3814610c4157806372593b4c14610de557806379666868146110545780637b103999146111e85780637ccefc521461123f5780637d7669811461126a5780638076f0051461140e5780638da5cb5b14611457578063a25eb5d9146114ae578063a8a41c7014611505578063ab834bab146116b6578063ca595b9a1461195e578063cae6047f14611afe578063d537e13114611b29578063e57d4adb14611d94578063f2fde38b14611ddd575b600080fd5b34801561019c57600080fd5b506101a5611e20565b604051808273ffffffffffffffffffffffffffffffffffffffff1673ffffffffffffffffffffffffffffffffffffffff16815260200191505060405180910390f35b3480156101f357600080fd5b506102b4600480360381019080803573ffffffffffffffffffffffffffffffffffffffff169060200190929190803590602001908201803590602001908080601f0160208091040260200160405190810160405280939291908181526020018383808284378201915050505050509192919290803590602001908201803590602001908080601f0160208091040260200160405190810160405280939291908181526020018383808284378201915050505050509192919290505050611e46565b604051808215151515815260200191505060405180910390f35b3480156102da57600080fd5b506102f960048036038101908080359060200190929190505050611ebf565b005b34801561030757600080fd5b5061032660048036038101908080359060200190929190505050611f25565b005b34801561033457600080fd5b5061041b600480360381019080803590602001908201803590602001908080601f0160208091040260200160405190810160405280939291908181526020018383808284378201915050505050509192919290803590602001908201803590602001908080601f0160208091040260200160405190810160405280939291908181526020018383808284378201915050505050509192919290803590602001908201803590602001908080601f0160208091040260200160405190810160405280939291908181526020018383808284378201915050505050509192919290505050611f8b565b6040518080602001828103825283818151815260200191508051906020019080838360005b8381101561045b578082015181840152602081019050610440565b50505050905090810190601f1680156104885780820380516001836020036101000a031916815260200191505b509250505060405180910390f35b3480156104a257600080fd5b506104ab611fa2565b6040518082815260200191505060405180910390f35b3480156104cd57600080fd5b50610502600480360381019080803573ffffffffffffffffffffffffffffffffffffffff169060200190929190505050611fa8565b6040518080602001828103825283818151815260200191508051906020019080838360005b83811015610542578082015181840152602081019050610527565b50505050905090810190601f16801561056f5780820380516001836020036101000a031916815260200191505b509250505060405180910390f35b34801561058957600080fd5b506105e4600480360381019080803590602001908201803590602001908080601f0160208091040260200160405190810160405280939291908181526020018383808284378201915050505050509192919290505050611fff565b6040518080602001828103825283818151815260200191508051906020019080838360005b83811015610624578082015181840152602081019050610609565b50505050905090810190601f1680156106515780820380516001836020036101000a031916815260200191505b509250505060405180910390f35b34801561066b57600080fd5b506107e56004803603810190808060e00190600780602002604051908101604052809291908260076020028082843782019150505050509192919290806101200190600980602002604051908101604052809291908260096020028082843782019150505050509192919290803560ff169060200190929190803560ff169060200190929190803560ff169060200190929190803560ff169060200190929190803590602001908201803590602001908080601f0160208091040260200160405190810160405280939291908181526020018383808284378201915050505050509192919290803590602001908201803590602001908080601f0160208091040260200160405190810160405280939291908181526020018383808284378201915050505050509192919290803590602001908201803590602001908080601f0160208091040260200160405190810160405280939291908181526020018383808284378201915050505050509192919290505050612056565b6040518082815260200191505060405180910390f35b34801561080757600080fd5b5061083c600480360381019080803573ffffffffffffffffffffffffffffffffffffffff1690602001909291905050506122fa565b005b34801561084a57600080fd5b50610977600480360381019080803590602001908201803590602001908080601f0160208091040260200160405190810160405280939291908181526020018383808284378201915050505050509192919290803590602001908201803590602001908080601f0160208091040260200160405190810160405280939291908181526020018383808284378201915050505050509192919290803590602001908201803590602001908080601f0160208091040260200160405190810160405280939291908181526020018383808284378201915050505050509192919290803590602001908201803590602001908080601f016020809104026020016040519081016040528093929190818152602001838380828437820191505050505050919291929050505061239a565b604051808215151515815260200191505060405180910390f35b34801561099d57600080fd5b50610b406004803603810190808060e00190600780602002604051908101604052809291908260076020028082843782019150505050509192919290806101200190600980602002604051908101604052809291908260096020028082843782019150505050509192919290803560ff169060200190929190803560ff169060200190929190803560ff169060200190929190803560ff169060200190929190803590602001908201803590602001908080601f0160208091040260200160405190810160405280939291908181526020018383808284378201915050505050509192919290803590602001908201803590602001908080601f0160208091040260200160405190810160405280939291908181526020018383808284378201915050505050509192919290803590602001908201803590602001908080601f0160208091040260200160405190810160405280939291908181526020018383808284378201915050505050509192919290803560ff169060200190929190803560001916906020019092919080356000191690602001909291905050506123db565b604051808215151515815260200191505060405180910390f35b348015610b6657600080fd5b50610bbd600480360381019080803560ff169060200190929190803560ff169060200190929190803590602001909291908035906020019092919080359060200190929190803590602001909291905050506126be565b6040518082815260200191505060405180910390f35b348015610bdf57600080fd5b50610be86126da565b604051808273ffffffffffffffffffffffffffffffffffffffff1673ffffffffffffffffffffffffffffffffffffffff16815260200191505060405180910390f35b348015610c3657600080fd5b50610c3f612700565b005b348015610c4d57600080fd5b50610dc76004803603810190808060e00190600780602002604051908101604052809291908260076020028082843782019150505050509192919290806101200190600980602002604051908101604052809291908260096020028082843782019150505050509192919290803560ff169060200190929190803560ff169060200190929190803560ff169060200190929190803560ff169060200190929190803590602001908201803590602001908080601f0160208091040260200160405190810160405280939291908181526020018383808284378201915050505050509192919290803590602001908201803590602001908080601f0160208091040260200160405190810160405280939291908181526020018383808284378201915050505050509192919290803590602001908201803590602001908080601f0160208091040260200160405190810160405280939291908181526020018383808284378201915050505050509192919290505050612804565b60405180826000191660001916815260200191505060405180910390f35b348015610df157600080fd5b5061103a600480360381019080806101c00190600e806020026040519081016040528092919082600e6020028082843782019150505050509192919290806102400190601280602002604051908101604052809291908260126020028082843782019150505050509192919290806101000190600880602002604051908101604052809291908260086020028082843782019150505050509192919290803590602001908201803590602001908080601f0160208091040260200160405190810160405280939291908181526020018383808284378201915050505050509192919290803590602001908201803590602001908080601f0160208091040260200160405190810160405280939291908181526020018383808284378201915050505050509192919290803590602001908201803590602001908080601f0160208091040260200160405190810160405280939291908181526020018383808284378201915050505050509192919290803590602001908201803590602001908080601f0160208091040260200160405190810160405280939291908181526020018383808284378201915050505050509192919290803590602001908201803590602001908080601f0160208091040260200160405190810160405280939291908181526020018383808284378201915050505050509192919290803590602001908201803590602001908080601f0160208091040260200160405190810160405280939291908181526020018383808284378201915050505050509192919290505050612aa8565b604051808215151515815260200191505060405180910390f35b34801561106057600080fd5b506111e66004803603810190808060e00190600780602002604051908101604052809291908260076020028082843782019150505050509192919290806101200190600980602002604051908101604052809291908260096020028082843782019150505050509192919290803560ff169060200190929190803560ff169060200190929190803560ff169060200190929190803560ff169060200190929190803590602001908201803590602001908080601f0160208091040260200160405190810160405280939291908181526020018383808284378201915050505050509192919290803590602001908201803590602001908080601f0160208091040260200160405190810160405280939291908181526020018383808284378201915050505050509192919290803590602001908201803590602001908080601f01602080910402602001604051908101604052809392919081815260200183838082843782019150505050505091929192908035151590602001909291905050506130f7565b005b3480156111f457600080fd5b506111fd6133a3565b604051808273ffffffffffffffffffffffffffffffffffffffff1673ffffffffffffffffffffffffffffffffffffffff16815260200191505060405180910390f35b34801561124b57600080fd5b506112546133c9565b6040518082815260200191505060405180910390f35b34801561127657600080fd5b506113f06004803603810190808060e00190600780602002604051908101604052809291908260076020028082843782019150505050509192919290806101200190600980602002604051908101604052809291908260096020028082843782019150505050509192919290803560ff169060200190929190803560ff169060200190929190803560ff169060200190929190803560ff169060200190929190803590602001908201803590602001908080601f0160208091040260200160405190810160405280939291908181526020018383808284378201915050505050509192919290803590602001908201803590602001908080601f0160208091040260200160405190810160405280939291908181526020018383808284378201915050505050509192919290803590602001908201803590602001908080601f01602080910402602001604051908101604052809392919081815260200183838082843782019150505050505091929192905050506133cf565b60405180826000191660001916815260200191505060405180910390f35b34801561141a57600080fd5b5061143d6004803603810190808035600019169060200190929190505050613673565b604051808215151515815260200191505060405180910390f35b34801561146357600080fd5b5061146c613693565b604051808273ffffffffffffffffffffffffffffffffffffffff1673ffffffffffffffffffffffffffffffffffffffff16815260200191505060405180910390f35b3480156114ba57600080fd5b506114c36136b9565b604051808273ffffffffffffffffffffffffffffffffffffffff1673ffffffffffffffffffffffffffffffffffffffff16815260200191505060405180910390f35b34801561151157600080fd5b506116b46004803603810190808060e00190600780602002604051908101604052809291908260076020028082843782019150505050509192919290806101200190600980602002604051908101604052809291908260096020028082843782019150505050509192919290803560ff169060200190929190803560ff169060200190929190803560ff169060200190929190803560ff169060200190929190803590602001908201803590602001908080601f0160208091040260200160405190810160405280939291908181526020018383808284378201915050505050509192919290803590602001908201803590602001908080601f0160208091040260200160405190810160405280939291908181526020018383808284378201915050505050509192919290803590602001908201803590602001908080601f0160208091040260200160405190810160405280939291908181526020018383808284378201915050505050509192919290803560ff169060200190929190803560001916906020019092919080356000191690602001909291905050506136df565b005b61195c600480360381019080806101c00190600e806020026040519081016040528092919082600e6020028082843782019150505050509192919290806102400190601280602002604051908101604052809291908260126020028082843782019150505050509192919290806101000190600880602002604051908101604052809291908260086020028082843782019150505050509192919290803590602001908201803590602001908080601f0160208091040260200160405190810160405280939291908181526020018383808284378201915050505050509192919290803590602001908201803590602001908080601f0160208091040260200160405190810160405280939291908181526020018383808284378201915050505050509192919290803590602001908201803590602001908080601f0160208091040260200160405190810160405280939291908181526020018383808284378201915050505050509192919290803590602001908201803590602001908080601f0160208091040260200160405190810160405280939291908181526020018383808284378201915050505050509192919290803590602001908201803590602001908080601f0160208091040260200160405190810160405280939291908181526020018383808284378201915050505050509192919290803590602001908201803590602001908080601f016020809104026020016040519081016040528093929190818152602001838380828437820191505050505050919291929080604001906002806020026040519081016040528092919082600260200280828437820191505050505091929192908060a001906005806020026040519081016040528092919082600560200280828437820191505050505091929192905050506139a7565b005b34801561196a57600080fd5b50611ae46004803603810190808060e00190600780602002604051908101604052809291908260076020028082843782019150505050509192919290806101200190600980602002604051908101604052809291908260096020028082843782019150505050509192919290803560ff169060200190929190803560ff169060200190929190803560ff169060200190929190803560ff169060200190929190803590602001908201803590602001908080601f0160208091040260200160405190810160405280939291908181526020018383808284378201915050505050509192919290803590602001908201803590602001908080601f0160208091040260200160405190810160405280939291908181526020018383808284378201915050505050509192919290803590602001908201803590602001908080601f01602080910402602001604051908101604052809392919081815260200183838082843782019150505050505091929192905050506140ae565b604051808215151515815260200191505060405180910390f35b348015611b0a57600080fd5b50611b1361435e565b6040518082815260200191505060405180910390f35b348015611b3557600080fd5b50611d7e600480360381019080806101c00190600e806020026040519081016040528092919082600e6020028082843782019150505050509192919290806102400190601280602002604051908101604052809291908260126020028082843782019150505050509192919290806101000190600880602002604051908101604052809291908260086020028082843782019150505050509192919290803590602001908201803590602001908080601f0160208091040260200160405190810160405280939291908181526020018383808284378201915050505050509192919290803590602001908201803590602001908080601f0160208091040260200160405190810160405280939291908181526020018383808284378201915050505050509192919290803590602001908201803590602001908080601f0160208091040260200160405190810160405280939291908181526020018383808284378201915050505050509192919290803590602001908201803590602001908080601f0160208091040260200160405190810160405280939291908181526020018383808284378201915050505050509192919290803590602001908201803590602001908080601f0160208091040260200160405190810160405280939291908181526020018383808284378201915050505050509192919290803590602001908201803590602001908080601f0160208091040260200160405190810160405280939291908181526020018383808284378201915050505050509192919290505050614364565b6040518082815260200191505060405180910390f35b348015611da057600080fd5b50611dc360048036038101908080356000191690602001909291905050506149b3565b604051808215151515815260200191505060405180910390f35b348015611de957600080fd5b50611e1e600480360381019080803573ffffffffffffffffffffffffffffffffffffffff1690602001909291905050506149d3565b005b600360009054906101000a900473ffffffffffffffffffffffffffffffffffffffff1681565b60006060600083518551016040519080825280601f01601f191660200182016040528015611e835781602001602082028038833980820191505090505b509150602082019050611e968185614b2b565b9050611ea28186614b2b565b506000604051835160208501895afa925082925050509392505050565b600060019054906101000a900473ffffffffffffffffffffffffffffffffffffffff1673ffffffffffffffffffffffffffffffffffffffff163373ffffffffffffffffffffffffffffffffffffffff16141515611f1b57600080fd5b8060068190555050565b600060019054906101000a900473ffffffffffffffffffffffffffffffffffffffff1673ffffffffffffffffffffffffffffffffffffffff163373ffffffffffffffffffffffffffffffffffffffff16141515611f8157600080fd5b8060078190555050565b6060611f98848484614b77565b8390509392505050565b60075481565b606080600060146040519080825280601f01601f191660200182016040528015611fe15781602001602082028038833980820191505090505b509150602082019050611ff48185614e1f565b508192505050919050565b606080600083516040519080825280601f01601f1916602001820160405280156120385781602001602082028038833980820191505090505b50915060208201905061204b8185614b2b565b508192505050919050565b60006122eb6102e0604051908101604052808c600060078110151561207757fe5b602002015173ffffffffffffffffffffffffffffffffffffffff1681526020018c60016007811015156120a657fe5b602002015173ffffffffffffffffffffffffffffffffffffffff1681526020018c60026007811015156120d557fe5b602002015173ffffffffffffffffffffffffffffffffffffffff1681526020018b600060098110151561210457fe5b602002015181526020018b600160098110151561211d57fe5b602002015181526020018b600260098110151561213657fe5b602002015181526020018b600360098110151561214f57fe5b602002015181526020018c600360078110151561216857fe5b602002015173ffffffffffffffffffffffffffffffffffffffff1681526020018a600181111561219457fe5b81526020018960018111156121a557fe5b81526020018860018111156121b657fe5b81526020018c60046007811015156121ca57fe5b602002015173ffffffffffffffffffffffffffffffffffffffff1681526020018760018111156121f657fe5b81526020018681526020018581526020018c600560078110151561221657fe5b602002015173ffffffffffffffffffffffffffffffffffffffff1681526020018481526020018c600660078110151561224b57fe5b602002015173ffffffffffffffffffffffffffffffffffffffff1681526020018b600460098110151561227a57fe5b602002015181526020018b600560098110151561229357fe5b602002015181526020018b60066009811015156122ac57fe5b602002015181526020018b60076009811015156122c557fe5b602002015181526020018b60086009811015156122de57fe5b6020020151815250614e55565b90509998505050505050505050565b600060019054906101000a900473ffffffffffffffffffffffffffffffffffffffff1673ffffffffffffffffffffffffffffffffffffffff163373ffffffffffffffffffffffffffffffffffffffff1614151561235657600080fd5b80600860006101000a81548173ffffffffffffffffffffffffffffffffffffffff021916908373ffffffffffffffffffffffffffffffffffffffff16021790555050565b600080845111156123b1576123b0858486614b77565b5b6000825111156123c7576123c6838684614b77565b5b6123d18584614e8a565b9050949350505050565b60006123e56171ed565b6102e0604051908101604052808f600060078110151561240157fe5b602002015173ffffffffffffffffffffffffffffffffffffffff1681526020018f600160078110151561243057fe5b602002015173ffffffffffffffffffffffffffffffffffffffff1681526020018f600260078110151561245f57fe5b602002015173ffffffffffffffffffffffffffffffffffffffff1681526020018e600060098110151561248e57fe5b602002015181526020018e60016009811015156124a757fe5b602002015181526020018e60026009811015156124c057fe5b602002015181526020018e60036009811015156124d957fe5b602002015181526020018f60036007811015156124f257fe5b602002015173ffffffffffffffffffffffffffffffffffffffff1681526020018d600181111561251e57fe5b81526020018c600181111561252f57fe5b81526020018b600181111561254057fe5b81526020018f600460078110151561255457fe5b602002015173ffffffffffffffffffffffffffffffffffffffff1681526020018a600181111561258057fe5b81526020018981526020018881526020018f60056007811015156125a057fe5b602002015173ffffffffffffffffffffffffffffffffffffffff1681526020018781526020018f60066007811015156125d557fe5b602002015173ffffffffffffffffffffffffffffffffffffffff1681526020018e600460098110151561260457fe5b602002015181526020018e600560098110151561261d57fe5b602002015181526020018e600660098110151561263657fe5b602002015181526020018e600760098110151561264f57fe5b602002015181526020018e600860098110151561266857fe5b602002015181525090506126ab61267e82614ef9565b826060604051908101604052808960ff168152602001886000191681526020018760001916815250614f50565b9150509c9b505050505050505050505050565b60006126ce8787878787876150b1565b90509695505050505050565b600860009054906101000a900473ffffffffffffffffffffffffffffffffffffffff1681565b600060019054906101000a900473ffffffffffffffffffffffffffffffffffffffff1673ffffffffffffffffffffffffffffffffffffffff163373ffffffffffffffffffffffffffffffffffffffff1614151561275c57600080fd5b600060019054906101000a900473ffffffffffffffffffffffffffffffffffffffff1673ffffffffffffffffffffffffffffffffffffffff167ff8df31144d9c2f0f6b59d69b8b98abd5459d07f2742c4df920b25aae33c6482060405160405180910390a260008060016101000a81548173ffffffffffffffffffffffffffffffffffffffff021916908373ffffffffffffffffffffffffffffffffffffffff160217905550565b6000612a996102e0604051908101604052808c600060078110151561282557fe5b602002015173ffffffffffffffffffffffffffffffffffffffff1681526020018c600160078110151561285457fe5b602002015173ffffffffffffffffffffffffffffffffffffffff1681526020018c600260078110151561288357fe5b602002015173ffffffffffffffffffffffffffffffffffffffff1681526020018b60006009811015156128b257fe5b602002015181526020018b60016009811015156128cb57fe5b602002015181526020018b60026009811015156128e457fe5b602002015181526020018b60036009811015156128fd57fe5b602002015181526020018c600360078110151561291657fe5b602002015173ffffffffffffffffffffffffffffffffffffffff1681526020018a600181111561294257fe5b815260200189600181111561295357fe5b815260200188600181111561296457fe5b81526020018c600460078110151561297857fe5b602002015173ffffffffffffffffffffffffffffffffffffffff1681526020018760018111156129a457fe5b81526020018681526020018581526020018c60056007811015156129c457fe5b602002015173ffffffffffffffffffffffffffffffffffffffff1681526020018481526020018c60066007811015156129f957fe5b602002015173ffffffffffffffffffffffffffffffffffffffff1681526020018b6004600981101515612a2857fe5b602002015181526020018b6005600981101515612a4157fe5b602002015181526020018b6006600981101515612a5a57fe5b602002015181526020018b6007600981101515612a7357fe5b602002015181526020018b6008600981101515612a8c57fe5b602002015181525061516c565b90509998505050505050505050565b6000612ab26171ed565b612aba6171ed565b6102e0604051908101604052808d6000600e81101515612ad657fe5b602002015173ffffffffffffffffffffffffffffffffffffffff1681526020018d6001600e81101515612b0557fe5b602002015173ffffffffffffffffffffffffffffffffffffffff1681526020018d6002600e81101515612b3457fe5b602002015173ffffffffffffffffffffffffffffffffffffffff1681526020018c6000601281101515612b6357fe5b602002015181526020018c6001601281101515612b7c57fe5b602002015181526020018c6002601281101515612b9557fe5b602002015181526020018c6003601281101515612bae57fe5b602002015181526020018d6003600e81101515612bc757fe5b602002015173ffffffffffffffffffffffffffffffffffffffff1681526020018b6000600881101515612bf657fe5b602002015160ff166001811115612c0957fe5b6001811115612c1457fe5b81526020018b6001600881101515612c2857fe5b602002015160ff166001811115612c3b57fe5b6001811115612c4657fe5b81526020018b6002600881101515612c5a57fe5b602002015160ff166001811115612c6d57fe5b6001811115612c7857fe5b81526020018d6004600e81101515612c8c57fe5b602002015173ffffffffffffffffffffffffffffffffffffffff1681526020018b6003600881101515612cbb57fe5b602002015160ff166001811115612cce57fe5b6001811115612cd957fe5b81526020018a81526020018881526020018d6005600e81101515612cf957fe5b602002015173ffffffffffffffffffffffffffffffffffffffff1681526020018681526020018d6006600e81101515612d2e57fe5b602002015173ffffffffffffffffffffffffffffffffffffffff1681526020018c6004601281101515612d5d57fe5b602002015181526020018c6005601281101515612d7657fe5b602002015181526020018c6006601281101515612d8f57fe5b602002015181526020018c6007601281101515612da857fe5b602002015181526020018c6008601281101515612dc157fe5b602002015181525091506102e0604051908101604052808d6007600e81101515612de757fe5b602002015173ffffffffffffffffffffffffffffffffffffffff1681526020018d6008600e81101515612e1657fe5b602002015173ffffffffffffffffffffffffffffffffffffffff1681526020018d6009600e81101515612e4557fe5b602002015173ffffffffffffffffffffffffffffffffffffffff1681526020018c6009601281101515612e7457fe5b602002015181526020018c600a601281101515612e8d57fe5b602002015181526020018c600b601281101515612ea657fe5b602002015181526020018c600c601281101515612ebf57fe5b602002015181526020018d600a600e81101515612ed857fe5b602002015173ffffffffffffffffffffffffffffffffffffffff1681526020018b6004600881101515612f0757fe5b602002015160ff166001811115612f1a57fe5b6001811115612f2557fe5b81526020018b6005600881101515612f3957fe5b602002015160ff166001811115612f4c57fe5b6001811115612f5757fe5b81526020018b6006600881101515612f6b57fe5b602002015160ff166001811115612f7e57fe5b6001811115612f8957fe5b81526020018d600b600e81101515612f9d57fe5b602002015173ffffffffffffffffffffffffffffffffffffffff1681526020018b6007600881101515612fcc57fe5b602002015160ff166001811115612fdf57fe5b6001811115612fea57fe5b81526020018981526020018781526020018d600c600e8110151561300a57fe5b602002015173ffffffffffffffffffffffffffffffffffffffff1681526020018581526020018d600d600e8110151561303f57fe5b602002015173ffffffffffffffffffffffffffffffffffffffff1681526020018c600d60128110151561306e57fe5b602002015181526020018c600e60128110151561308757fe5b602002015181526020018c600f6012811015156130a057fe5b602002015181526020018c60106012811015156130b957fe5b602002015181526020018c60116012811015156130d257fe5b602002015181525090506130e68282615378565b925050509998505050505050505050565b6130ff6171ed565b6102e0604051908101604052808c600060078110151561311b57fe5b602002015173ffffffffffffffffffffffffffffffffffffffff1681526020018c600160078110151561314a57fe5b602002015173ffffffffffffffffffffffffffffffffffffffff1681526020018c600260078110151561317957fe5b602002015173ffffffffffffffffffffffffffffffffffffffff1681526020018b60006009811015156131a857fe5b602002015181526020018b60016009811015156131c157fe5b602002015181526020018b60026009811015156131da57fe5b602002015181526020018b60036009811015156131f357fe5b602002015181526020018c600360078110151561320c57fe5b602002015173ffffffffffffffffffffffffffffffffffffffff1681526020018a600181111561323857fe5b815260200189600181111561324957fe5b815260200188600181111561325a57fe5b81526020018c600460078110151561326e57fe5b602002015173ffffffffffffffffffffffffffffffffffffffff16815260200187600181111561329a57fe5b81526020018681526020018581526020018c60056007811015156132ba57fe5b602002015173ffffffffffffffffffffffffffffffffffffffff1681526020018481526020018c60066007811015156132ef57fe5b602002015173ffffffffffffffffffffffffffffffffffffffff1681526020018b600460098110151561331e57fe5b602002015181526020018b600560098110151561333757fe5b602002015181526020018b600660098110151561335057fe5b602002015181526020018b600760098110151561336957fe5b602002015181526020018b600860098110151561338257fe5b6020020151815250905061339681836156bb565b5050505050505050505050565b600260009054906101000a900473ffffffffffffffffffffffffffffffffffffffff1681565b60065481565b60006136646102e0604051908101604052808c60006007811015156133f057fe5b602002015173ffffffffffffffffffffffffffffffffffffffff1681526020018c600160078110151561341f57fe5b602002015173ffffffffffffffffffffffffffffffffffffffff1681526020018c600260078110151561344e57fe5b602002015173ffffffffffffffffffffffffffffffffffffffff1681526020018b600060098110151561347d57fe5b602002015181526020018b600160098110151561349657fe5b602002015181526020018b60026009811015156134af57fe5b602002015181526020018b60036009811015156134c857fe5b602002015181526020018c60036007811015156134e157fe5b602002015173ffffffffffffffffffffffffffffffffffffffff1681526020018a600181111561350d57fe5b815260200189600181111561351e57fe5b815260200188600181111561352f57fe5b81526020018c600460078110151561354357fe5b602002015173ffffffffffffffffffffffffffffffffffffffff16815260200187600181111561356f57fe5b81526020018681526020018581526020018c600560078110151561358f57fe5b602002015173ffffffffffffffffffffffffffffffffffffffff1681526020018481526020018c60066007811015156135c457fe5b602002015173ffffffffffffffffffffffffffffffffffffffff1681526020018b60046009811015156135f357fe5b602002015181526020018b600560098110151561360c57fe5b602002015181526020018b600660098110151561362557fe5b602002015181526020018b600760098110151561363e57fe5b602002015181526020018b600860098110151561365757fe5b6020020151815250614ef9565b90509998505050505050505050565b60046020528060005260406000206000915054906101000a900460ff1681565b600060019054906101000a900473ffffffffffffffffffffffffffffffffffffffff1681565b600160009054906101000a900473ffffffffffffffffffffffffffffffffffffffff1681565b6139996102e0604051908101604052808e60006007811015156136fe57fe5b602002015173ffffffffffffffffffffffffffffffffffffffff1681526020018e600160078110151561372d57fe5b602002015173ffffffffffffffffffffffffffffffffffffffff1681526020018e600260078110151561375c57fe5b602002015173ffffffffffffffffffffffffffffffffffffffff1681526020018d600060098110151561378b57fe5b602002015181526020018d60016009811015156137a457fe5b602002015181526020018d60026009811015156137bd57fe5b602002015181526020018d60036009811015156137d657fe5b602002015181526020018e60036007811015156137ef57fe5b602002015173ffffffffffffffffffffffffffffffffffffffff1681526020018c600181111561381b57fe5b81526020018b600181111561382c57fe5b81526020018a600181111561383d57fe5b81526020018e600460078110151561385157fe5b602002015173ffffffffffffffffffffffffffffffffffffffff16815260200189600181111561387d57fe5b81526020018881526020018781526020018e600560078110151561389d57fe5b602002015173ffffffffffffffffffffffffffffffffffffffff1681526020018681526020018e60066007811015156138d257fe5b602002015173ffffffffffffffffffffffffffffffffffffffff1681526020018d600460098110151561390157fe5b602002015181526020018d600560098110151561391a57fe5b602002015181526020018d600660098110151561393357fe5b602002015181526020018d600760098110151561394c57fe5b602002015181526020018d600860098110151561396557fe5b60200201518152506060604051908101604052808660ff168152602001856000191681526020018460001916815250615b6c565b505050505050505050505050565b6140a16102e0604051908101604052808d6000600e811015156139c657fe5b602002015173ffffffffffffffffffffffffffffffffffffffff1681526020018d6001600e811015156139f557fe5b602002015173ffffffffffffffffffffffffffffffffffffffff1681526020018d6002600e81101515613a2457fe5b602002015173ffffffffffffffffffffffffffffffffffffffff1681526020018c6000601281101515613a5357fe5b602002015181526020018c6001601281101515613a6c57fe5b602002015181526020018c6002601281101515613a8557fe5b602002015181526020018c6003601281101515613a9e57fe5b602002015181526020018d6003600e81101515613ab757fe5b602002015173ffffffffffffffffffffffffffffffffffffffff1681526020018b6000600881101515613ae657fe5b602002015160ff166001811115613af957fe5b6001811115613b0457fe5b81526020018b6001600881101515613b1857fe5b602002015160ff166001811115613b2b57fe5b6001811115613b3657fe5b81526020018b6002600881101515613b4a57fe5b602002015160ff166001811115613b5d57fe5b6001811115613b6857fe5b81526020018d6004600e81101515613b7c57fe5b602002015173ffffffffffffffffffffffffffffffffffffffff1681526020018b6003600881101515613bab57fe5b602002015160ff166001811115613bbe57fe5b6001811115613bc957fe5b81526020018a81526020018881526020018d6005600e81101515613be957fe5b602002015173ffffffffffffffffffffffffffffffffffffffff1681526020018681526020018d6006600e81101515613c1e57fe5b602002015173ffffffffffffffffffffffffffffffffffffffff1681526020018c6004601281101515613c4d57fe5b602002015181526020018c6005601281101515613c6657fe5b602002015181526020018c6006601281101515613c7f57fe5b602002015181526020018c6007601281101515613c9857fe5b602002015181526020018c6008601281101515613cb157fe5b6020020151815250606060405190810160405280856000600281101515613cd457fe5b602002015160ff168152602001846000600581101515613cf057fe5b6020020151600019168152602001846001600581101515613d0d57fe5b6020020151600019168152506102e0604051908101604052808f6007600e81101515613d3557fe5b602002015173ffffffffffffffffffffffffffffffffffffffff1681526020018f6008600e81101515613d6457fe5b602002015173ffffffffffffffffffffffffffffffffffffffff1681526020018f6009600e81101515613d9357fe5b602002015173ffffffffffffffffffffffffffffffffffffffff1681526020018e6009601281101515613dc257fe5b602002015181526020018e600a601281101515613ddb57fe5b602002015181526020018e600b601281101515613df457fe5b602002015181526020018e600c601281101515613e0d57fe5b602002015181526020018f600a600e81101515613e2657fe5b602002015173ffffffffffffffffffffffffffffffffffffffff1681526020018d6004600881101515613e5557fe5b602002015160ff166001811115613e6857fe5b6001811115613e7357fe5b81526020018d6005600881101515613e8757fe5b602002015160ff166001811115613e9a57fe5b6001811115613ea557fe5b81526020018d6006600881101515613eb957fe5b602002015160ff166001811115613ecc57fe5b6001811115613ed757fe5b81526020018f600b600e81101515613eeb57fe5b602002015173ffffffffffffffffffffffffffffffffffffffff1681526020018d6007600881101515613f1a57fe5b602002015160ff166001811115613f2d57fe5b6001811115613f3857fe5b81526020018b81526020018981526020018f600c600e81101515613f5857fe5b602002015173ffffffffffffffffffffffffffffffffffffffff1681526020018781526020018f600d600e81101515613f8d57fe5b602002015173ffffffffffffffffffffffffffffffffffffffff1681526020018e600d601281101515613fbc57fe5b602002015181526020018e600e601281101515613fd557fe5b602002015181526020018e600f601281101515613fee57fe5b602002015181526020018e601060128110151561400757fe5b602002015181526020018e601160128110151561402057fe5b602002015181525060606040519081016040528087600160028110151561404357fe5b602002015160ff16815260200186600260058110151561405f57fe5b602002015160001916815260200186600360058110151561407c57fe5b60200201516000191681525085600460058110151561409757fe5b6020020151615c22565b5050505050505050505050565b60006140b86171ed565b6102e0604051908101604052808c60006007811015156140d457fe5b602002015173ffffffffffffffffffffffffffffffffffffffff1681526020018c600160078110151561410357fe5b602002015173ffffffffffffffffffffffffffffffffffffffff1681526020018c600260078110151561413257fe5b602002015173ffffffffffffffffffffffffffffffffffffffff1681526020018b600060098110151561416157fe5b602002015181526020018b600160098110151561417a57fe5b602002015181526020018b600260098110151561419357fe5b602002015181526020018b60036009811015156141ac57fe5b602002015181526020018c60036007811015156141c557fe5b602002015173ffffffffffffffffffffffffffffffffffffffff1681526020018a60018111156141f157fe5b815260200189600181111561420257fe5b815260200188600181111561421357fe5b81526020018c600460078110151561422757fe5b602002015173ffffffffffffffffffffffffffffffffffffffff16815260200187600181111561425357fe5b81526020018681526020018581526020018c600560078110151561427357fe5b602002015173ffffffffffffffffffffffffffffffffffffffff1681526020018481526020018c60066007811015156142a857fe5b602002015173ffffffffffffffffffffffffffffffffffffffff1681526020018b60046009811015156142d757fe5b602002015181526020018b60056009811015156142f057fe5b602002015181526020018b600660098110151561430957fe5b602002015181526020018b600760098110151561432257fe5b602002015181526020018b600860098110151561433b57fe5b6020020151815250905061434e816164f3565b9150509998505050505050505050565b61271081565b600061436e6171ed565b6143766171ed565b6102e0604051908101604052808d6000600e8110151561439257fe5b602002015173ffffffffffffffffffffffffffffffffffffffff1681526020018d6001600e811015156143c157fe5b602002015173ffffffffffffffffffffffffffffffffffffffff1681526020018d6002600e811015156143f057fe5b602002015173ffffffffffffffffffffffffffffffffffffffff1681526020018c600060128110151561441f57fe5b602002015181526020018c600160128110151561443857fe5b602002015181526020018c600260128110151561445157fe5b602002015181526020018c600360128110151561446a57fe5b602002015181526020018d6003600e8110151561448357fe5b602002015173ffffffffffffffffffffffffffffffffffffffff1681526020018b60006008811015156144b257fe5b602002015160ff1660018111156144c557fe5b60018111156144d057fe5b81526020018b60016008811015156144e457fe5b602002015160ff1660018111156144f757fe5b600181111561450257fe5b81526020018b600260088110151561451657fe5b602002015160ff16600181111561452957fe5b600181111561453457fe5b81526020018d6004600e8110151561454857fe5b602002015173ffffffffffffffffffffffffffffffffffffffff1681526020018b600360088110151561457757fe5b602002015160ff16600181111561458a57fe5b600181111561459557fe5b81526020018a81526020018881526020018d6005600e811015156145b557fe5b602002015173ffffffffffffffffffffffffffffffffffffffff1681526020018681526020018d6006600e811015156145ea57fe5b602002015173ffffffffffffffffffffffffffffffffffffffff1681526020018c600460128110151561461957fe5b602002015181526020018c600560128110151561463257fe5b602002015181526020018c600660128110151561464b57fe5b602002015181526020018c600760128110151561466457fe5b602002015181526020018c600860128110151561467d57fe5b602002015181525091506102e0604051908101604052808d6007600e811015156146a357fe5b602002015173ffffffffffffffffffffffffffffffffffffffff1681526020018d6008600e811015156146d257fe5b602002015173ffffffffffffffffffffffffffffffffffffffff1681526020018d6009600e8110151561470157fe5b602002015173ffffffffffffffffffffffffffffffffffffffff1681526020018c600960128110151561473057fe5b602002015181526020018c600a60128110151561474957fe5b602002015181526020018c600b60128110151561476257fe5b602002015181526020018c600c60128110151561477b57fe5b602002015181526020018d600a600e8110151561479457fe5b602002015173ffffffffffffffffffffffffffffffffffffffff1681526020018b60046008811015156147c357fe5b602002015160ff1660018111156147d657fe5b60018111156147e157fe5b81526020018b60056008811015156147f557fe5b602002015160ff16600181111561480857fe5b600181111561481357fe5b81526020018b600660088110151561482757fe5b602002015160ff16600181111561483a57fe5b600181111561484557fe5b81526020018d600b600e8110151561485957fe5b602002015173ffffffffffffffffffffffffffffffffffffffff1681526020018b600760088110151561488857fe5b602002015160ff16600181111561489b57fe5b60018111156148a657fe5b81526020018981526020018781526020018d600c600e811015156148c657fe5b602002015173ffffffffffffffffffffffffffffffffffffffff1681526020018581526020018d600d600e811015156148fb57fe5b602002015173ffffffffffffffffffffffffffffffffffffffff1681526020018c600d60128110151561492a57fe5b602002015181526020018c600e60128110151561494357fe5b602002015181526020018c600f60128110151561495c57fe5b602002015181526020018c601060128110151561497557fe5b602002015181526020018c601160128110151561498e57fe5b602002015181525090506149a282826165b1565b925050509998505050505050505050565b60056020528060005260406000206000915054906101000a900460ff1681565b600060019054906101000a900473ffffffffffffffffffffffffffffffffffffffff1673ffffffffffffffffffffffffffffffffffffffff163373ffffffffffffffffffffffffffffffffffffffff16141515614a2f57600080fd5b600073ffffffffffffffffffffffffffffffffffffffff168173ffffffffffffffffffffffffffffffffffffffff1614151515614a6b57600080fd5b8073ffffffffffffffffffffffffffffffffffffffff16600060019054906101000a900473ffffffffffffffffffffffffffffffffffffffff1673ffffffffffffffffffffffffffffffffffffffff167f8be0079c531659141344cd1fd0a4f28419497f9722a3daafe3b4186f6b6457e060405160405180910390a380600060016101000a81548173ffffffffffffffffffffffffffffffffffffffff021916908373ffffffffffffffffffffffffffffffffffffffff16021790555050565b60008082511115614b6e57815180602001830160208401855b60018383101415614b645781518152602082019150602081019050614b44565b8387019650505050505b82905092915050565b600080600084518651141515614b8c57600080fd5b83518651141515614b9c57600080fd5b60208651811515614ba957fe5b04925060208302915082602083811515614bbf57fe5b04141515614bc957fe5b600090505b82811015614c0257806001016020028085015181870151811682890151821916178289015250508080600101915050614bce565b6000831115614c325782905080600101602002808501518187015181168289015182191617828901525050614e17565b8190505b8551811015614e16578481815181101515614c4d57fe5b9060200101517f010000000000000000000000000000000000000000000000000000000000000090047f0100000000000000000000000000000000000000000000000000000000000000028482815181101515614ca657fe5b9060200101517f010000000000000000000000000000000000000000000000000000000000000090047f010000000000000000000000000000000000000000000000000000000000000002168682815181101515614d0057fe5b9060200101517f010000000000000000000000000000000000000000000000000000000000000090047f01000000000000000000000000000000000000000000000000000000000000000260ff7f0100000000000000000000000000000000000000000000000000000000000000028684815181101515614d7d57fe5b9060200101517f010000000000000000000000000000000000000000000000000000000000000090047f0100000000000000000000000000000000000000000000000000000000000000021816178682815181101515614dd957fe5b9060200101907effffffffffffffffffffffffffffffffffffffffffffffffffffffffffffff1916908160001a9053508080600101915050614c36565b5b505050505050565b60008060608373ffffffffffffffffffffffffffffffffffffffff169060020a0290508084526014840193508391505092915050565b6000614e83826101200151836101400151846102400151856102600151866102800151876102a001516150b1565b9050919050565b6000806001905083518351811460018114614ea85760009250614eed565b600160208701838101602088015b600284838510011415614ee85780518351141515614ed75760009650600093505b602083019250602081019050614eb6565b505050505b50508091505092915050565b6000614f048261516c565b60405180807f19457468657265756d205369676e6564204d6573736167653a0a333200000000815250601c01826000191660001916815260200191505060405180910390209050919050565b6000614f5b836164f3565b1515614f6a57600090506150aa565b60046000856000191660001916815260200190815260200160002060009054906101000a900460ff1615614fa157600090506150aa565b60056000856000191660001916815260200190815260200160002060009054906101000a900460ff1615614fd857600190506150aa565b826020015173ffffffffffffffffffffffffffffffffffffffff16600185846000015185602001518660400151604051600081526020016040526040518085600019166000191681526020018460ff1660ff1681526020018360001916600019168152602001826000191660001916815260200194505050505060206040516020810390808403906000865af1158015615076573d6000803e3d6000fd5b5050506020604051035173ffffffffffffffffffffffffffffffffffffffff1614156150a557600190506150aa565b600090505b9392505050565b600080600060018111156150c157fe5b8760018111156150cd57fe5b14156150db57859150615161565b6001808111156150e757fe5b8760018111156150f357fe5b14156151605761511e61510f8661510a428861666c565b616685565b615119858761666c565b6166bd565b905060018081111561512c57fe5b88600181111561513857fe5b141561514f57615148868261666c565b9150615161565b61515986826166d3565b9150615161565b5b509695505050505050565b6000806060600061517c856166ef565b9250826040519080825280601f01601f1916602001820160405280156151b15781602001602082028038833980820191505090505b5091506020820190506151c8818660000151614e1f565b90506151d8818660200151614e1f565b90506151e8818660400151614e1f565b90506151f8818660600151616713565b9050615208818660800151616713565b9050615218818660a00151616713565b9050615228818660c00151616713565b9050615238818660e00151614e1f565b905061525481866101000151600181111561524f57fe5b616727565b905061527081866101200151600181111561526b57fe5b616727565b905061528c81866101400151600181111561528757fe5b616727565b905061529d81866101600151614e1f565b90506152b98186610180015160018111156152b457fe5b616727565b90506152ca81866101a00151614b2b565b90506152db81866101c00151614b2b565b90506152ec81866101e00151614e1f565b90506152fd81866102000151614b2b565b905061530e81866102200151614e1f565b905061531f81866102400151616713565b905061533081866102600151616713565b905061534181866102800151616713565b905061535281866102a00151616713565b905061536381866102c00151616713565b90508260208301209350839350505050919050565b600080600181111561538657fe5b836101200151600181111561539757fe5b1480156153be57506001808111156153ab57fe5b82610120015160018111156153bc57fe5b145b80156153e9575081610100015160018111156153d657fe5b83610100015160018111156153e757fe5b145b801561542a575081610220015173ffffffffffffffffffffffffffffffffffffffff1683610220015173ffffffffffffffffffffffffffffffffffffffff16145b80156154a45750600073ffffffffffffffffffffffffffffffffffffffff16826040015173ffffffffffffffffffffffffffffffffffffffff1614806154a35750826020015173ffffffffffffffffffffffffffffffffffffffff16826040015173ffffffffffffffffffffffffffffffffffffffff16145b5b801561551e5750600073ffffffffffffffffffffffffffffffffffffffff16836040015173ffffffffffffffffffffffffffffffffffffffff16148061551d5750816020015173ffffffffffffffffffffffffffffffffffffffff16836040015173ffffffffffffffffffffffffffffffffffffffff16145b5b801561560f5750600073ffffffffffffffffffffffffffffffffffffffff168260e0015173ffffffffffffffffffffffffffffffffffffffff161480156155965750600073ffffffffffffffffffffffffffffffffffffffff168360e0015173ffffffffffffffffffffffffffffffffffffffff1614155b8061560e5750600073ffffffffffffffffffffffffffffffffffffffff168260e0015173ffffffffffffffffffffffffffffffffffffffff161415801561560d5750600073ffffffffffffffffffffffffffffffffffffffff168360e0015173ffffffffffffffffffffffffffffffffffffffff16145b5b5b8015615650575081610160015173ffffffffffffffffffffffffffffffffffffffff1683610160015173ffffffffffffffffffffffffffffffffffffffff16145b801561567b5750816101800151600181111561566857fe5b836101800151600181111561567957fe5b145b80156156975750615696836102800151846102a0015161673b565b5b80156156b357506156b2826102800151836102a0015161673b565b5b905092915050565b6000826020015173ffffffffffffffffffffffffffffffffffffffff163373ffffffffffffffffffffffffffffffffffffffff161415156156fb57600080fd5b61570483614ef9565b905060056000826000191660001916815260200190815260200160002060009054906101000a900460ff1615151561573b57600080fd5b600160056000836000191660001916815260200190815260200160002060006101000a81548160ff0219169083151502179055508260e0015173ffffffffffffffffffffffffffffffffffffffff16836020015173ffffffffffffffffffffffffffffffffffffffff1682600019167f90c7f9f5b58c15f0f635bfb99f55d3d78fdbef3559e7d8abf5c81052a527662286600001518760400151886060015189608001518a60a001518b60c001518c61010001518d61012001518e61014001518f6101600151604051808b73ffffffffffffffffffffffffffffffffffffffff1673ffffffffffffffffffffffffffffffffffffffff1681526020018a73ffffffffffffffffffffffffffffffffffffffff1673ffffffffffffffffffffffffffffffffffffffff16815260200189815260200188815260200187815260200186815260200185600181111561588d57fe5b60ff1681526020018460018111156158a157fe5b60ff1681526020018360018111156158b557fe5b60ff1681526020018273ffffffffffffffffffffffffffffffffffffffff1673ffffffffffffffffffffffffffffffffffffffff1681526020019a505050505050505050505060405180910390a480600019167fe55393c778364e440d958b39ac1debd99dcfae3775a8a04d1e79124adf6a2d08846101800151856101a00151866101c00151876101e001518861020001518961022001518a61024001518b61026001518c61028001518d6102a001518e6102c001518e604051808d600181111561597c57fe5b60ff16815260200180602001806020018c73ffffffffffffffffffffffffffffffffffffffff1673ffffffffffffffffffffffffffffffffffffffff168152602001806020018b73ffffffffffffffffffffffffffffffffffffffff1673ffffffffffffffffffffffffffffffffffffffff1681526020018a81526020018981526020018881526020018781526020018681526020018515151515815260200184810384528f818151815260200191508051906020019080838360005b83811015615a54578082015181840152602081019050615a39565b50505050905090810190601f168015615a815780820380516001836020036101000a031916815260200191505b5084810383528e818151815260200191508051906020019080838360005b83811015615aba578082015181840152602081019050615a9f565b50505050905090810190601f168015615ae75780820380516001836020036101000a031916815260200191505b5084810382528c818151815260200191508051906020019080838360005b83811015615b20578082015181840152602081019050615b05565b50505050905090810190601f168015615b4d5780820380516001836020036101000a031916815260200191505b509f5050505050505050505050505050505060405180910390a2505050565b6000615b78838361675e565b9050826020015173ffffffffffffffffffffffffffffffffffffffff163373ffffffffffffffffffffffffffffffffffffffff16141515615bb857600080fd5b600160046000836000191660001916815260200190815260200160002060006101000a81548160ff02191690831515021790555080600019167f5152abf959f6564662358c2e52b702259b78bac5ee7842a0f01937e670efcc7d60405160405180910390a2505050565b60008060008060008060008060009054906101000a900460ff1615615c4657600080fd5b60016000806101000a81548160ff0219169083151502179055503373ffffffffffffffffffffffffffffffffffffffff168c6020015173ffffffffffffffffffffffffffffffffffffffff161415615cb157615ca18c6164f3565b1515615cac57600080fd5b615cbe565b615cbb8c8c61675e565b96505b3373ffffffffffffffffffffffffffffffffffffffff168a6020015173ffffffffffffffffffffffffffffffffffffffff161415615d0f57615cff8a6164f3565b1515615d0a57600080fd5b615d1c565b615d198a8a61675e565b95505b615d268c8b615378565b1515615d3157600080fd5b8961016001519350833b9450600085111515615d4c57600080fd5b60008c6101c00151511115615d7657615d758c6101a001518b6101a001518e6101c00151614b77565b5b60008a6101c00151511115615da057615d9f8a6101a001518d6101a001518c6101c00151614b77565b5b615db48c6101a001518b6101a00151614e8a565b1515615dbf57600080fd5b600260009054906101000a900473ffffffffffffffffffffffffffffffffffffffff1673ffffffffffffffffffffffffffffffffffffffff1663c45527918b602001516040518263ffffffff167c0100000000000000000000000000000000000000000000000000000000028152600401808273ffffffffffffffffffffffffffffffffffffffff1673ffffffffffffffffffffffffffffffffffffffff168152602001915050602060405180830381600087803b158015615e8057600080fd5b505af1158015615e94573d6000803e3d6000fd5b505050506040513d6020811015615eaa57600080fd5b81019080805190602001909291905050509250600073ffffffffffffffffffffffffffffffffffffffff168373ffffffffffffffffffffffffffffffffffffffff1614151515615ef957600080fd5b600260009054906101000a900473ffffffffffffffffffffffffffffffffffffffff1673ffffffffffffffffffffffffffffffffffffffff166397204d8e6040518163ffffffff167c0100000000000000000000000000000000000000000000000000000000028152600401602060405180830381600087803b158015615f7f57600080fd5b505af1158015615f93573d6000803e3d6000fd5b505050506040513d6020811015615fa957600080fd5b810190808051906020019092919050505073ffffffffffffffffffffffffffffffffffffffff168373ffffffffffffffffffffffffffffffffffffffff16635c60da1b6040518163ffffffff167c0100000000000000000000000000000000000000000000000000000000028152600401602060405180830381600087803b15801561603457600080fd5b505af1158015616048573d6000803e3d6000fd5b505050506040513d602081101561605e57600080fd5b810190808051906020019092919050505073ffffffffffffffffffffffffffffffffffffffff1614151561609157600080fd5b8291508b6020015173ffffffffffffffffffffffffffffffffffffffff163373ffffffffffffffffffffffffffffffffffffffff1614151561610257600160046000896000191660001916815260200190815260200160002060006101000a81548160ff0219169083151502179055505b896020015173ffffffffffffffffffffffffffffffffffffffff163373ffffffffffffffffffffffffffffffffffffffff1614151561617057600160046000886000191660001916815260200190815260200160002060006101000a81548160ff0219169083151502179055505b61617a8c8b61678c565b90508173ffffffffffffffffffffffffffffffffffffffff16631b0f7ba98b61016001518c61018001518d6101a001516040518463ffffffff167c0100000000000000000000000000000000000000000000000000000000028152600401808473ffffffffffffffffffffffffffffffffffffffff1673ffffffffffffffffffffffffffffffffffffffff16815260200183600181111561621757fe5b60ff16815260200180602001828103825283818151815260200191508051906020019080838360005b8381101561625b578082015181840152602081019050616240565b50505050905090810190601f1680156162885780820380516001836020036101000a031916815260200191505b50945050505050602060405180830381600087803b1580156162a957600080fd5b505af11580156162bd573d6000803e3d6000fd5b505050506040513d60208110156162d357600080fd5b810190808051906020019092919050505015156162ef57600080fd5b600073ffffffffffffffffffffffffffffffffffffffff168c6101e0015173ffffffffffffffffffffffffffffffffffffffff16141515616350576163448c6101e001518b6101a001518e6102000151611e46565b151561634f57600080fd5b5b600073ffffffffffffffffffffffffffffffffffffffff168a6101e0015173ffffffffffffffffffffffffffffffffffffffff161415156163b1576163a58a6101e001518b6101a001518c6102000151611e46565b15156163b057600080fd5b5b8760001916600073ffffffffffffffffffffffffffffffffffffffff168b60e0015173ffffffffffffffffffffffffffffffffffffffff1614156163f9578a602001516163ff565b8c602001515b73ffffffffffffffffffffffffffffffffffffffff16600073ffffffffffffffffffffffffffffffffffffffff168c60e0015173ffffffffffffffffffffffffffffffffffffffff161415616458578d6020015161645e565b8b602001515b73ffffffffffffffffffffffffffffffffffffffff167fc4109843e0b7d514e4c093114b863f8e7d8d9a458c372cd51bfe526b588006c98a8a866040518084600019166000191681526020018360001916600019168152602001828152602001935050505060405180910390a460008060006101000a81548160ff021916908315150217905550505050505050505050505050565b60003073ffffffffffffffffffffffffffffffffffffffff16826000015173ffffffffffffffffffffffffffffffffffffffff1614151561653757600090506165ac565b61654b826101400151836102a00151617009565b151561655a57600090506165ac565b60018081111561656657fe5b826101000151600181111561657757fe5b14801561659957506006548260a00151108061659857506007548260c00151105b5b156165a757600090506165ac565b600190505b919050565b60008060006165e2846101200151856101400151866102400151876102600151886102800151896102a001516150b1565b91506166108561012001518661014001518761024001518861026001518961028001518a6102a001516150b1565b905081811015151561662157600080fd5b600073ffffffffffffffffffffffffffffffffffffffff168460e0015173ffffffffffffffffffffffffffffffffffffffff1614156166605780616662565b815b9250505092915050565b600082821115151561667a57fe5b818303905092915050565b60008083141561669857600090506166b7565b81830290508183828115156166a957fe5b041415156166b357fe5b8090505b92915050565b600081838115156166ca57fe5b04905092915050565b600081830190508281101515156166e657fe5b80905092915050565b600081610200015151826101c0015151836101a00151516101b00101019050919050565b600081835260208301925082905092915050565b600081835360018301925082905092915050565b600042831080156167565750600082148061675557508142105b5b905092915050565b60008061676a84614ef9565b9050616777818585614f50565b151561678257600080fd5b8091505092915050565b60008060008060008060008060008073ffffffffffffffffffffffffffffffffffffffff168a610220015173ffffffffffffffffffffffffffffffffffffffff161415156167e4576000341415156167e357600080fd5b5b6167ee8b8b6165b1565b97506000881180156168325750600073ffffffffffffffffffffffffffffffffffffffff168a610220015173ffffffffffffffffffffffffffffffffffffffff1614155b15616851576168508a61022001518c602001518c602001518b617037565b5b879650879550600073ffffffffffffffffffffffffffffffffffffffff168a60e0015173ffffffffffffffffffffffffffffffffffffffff16141515616cf7578a608001518a60800151111515156168a857600080fd5b6001808111156168b457fe5b8a610100015160018111156168c557fe5b1415616cc3578a60c001518a60c00151111515156168e257600080fd5b60008a6060015111156169bb576169086169008b606001518a616685565b6127106166bd565b9450600073ffffffffffffffffffffffffffffffffffffffff168a610220015173ffffffffffffffffffffffffffffffffffffffff1614156169a05761694e878661666c565b96508960e0015173ffffffffffffffffffffffffffffffffffffffff166108fc869081150290604051600060405180830381858888f1935050505015801561699a573d6000803e3d6000fd5b506169ba565b6169b98a61022001518b602001518c60e0015188617037565b5b5b60008a608001511115616a94576169e16169d98b608001518a616685565b6127106166bd565b9350600073ffffffffffffffffffffffffffffffffffffffff168a610220015173ffffffffffffffffffffffffffffffffffffffff161415616a7957616a2786856166d3565b95508960e0015173ffffffffffffffffffffffffffffffffffffffff166108fc859081150290604051600060405180830381858888f19350505050158015616a73573d6000803e3d6000fd5b50616a93565b616a928a61022001518c602001518c60e0015187617037565b5b5b60008a60a001511115616ba957616aba616ab28b60a001518a616685565b6127106166bd565b9250600073ffffffffffffffffffffffffffffffffffffffff168a610220015173ffffffffffffffffffffffffffffffffffffffff161415616b7057616b00878461666c565b9650600860009054906101000a900473ffffffffffffffffffffffffffffffffffffffff1673ffffffffffffffffffffffffffffffffffffffff166108fc849081150290604051600060405180830381858888f19350505050158015616b6a573d6000803e3d6000fd5b50616ba8565b616ba78a61022001518b60200151600860009054906101000a900473ffffffffffffffffffffffffffffffffffffffff1686617037565b5b5b60008a60c001511115616cbe57616bcf616bc78b60c001518a616685565b6127106166bd565b9150600073ffffffffffffffffffffffffffffffffffffffff168a610220015173ffffffffffffffffffffffffffffffffffffffff161415616c8557616c1586836166d3565b9550600860009054906101000a900473ffffffffffffffffffffffffffffffffffffffff1673ffffffffffffffffffffffffffffffffffffffff166108fc839081150290604051600060405180830381858888f19350505050158015616c7f573d6000803e3d6000fd5b50616cbd565b616cbc8a61022001518c60200151600860009054906101000a900473ffffffffffffffffffffffffffffffffffffffff1685617037565b5b5b616cf2565b616cda8a602001518b60e001518c606001516171ba565b616cf18b602001518b60e001518c608001516171ba565b5b616f02565b89608001518b6080015111151515616d0e57600080fd5b600180811115616d1a57fe5b8a61010001516001811115616d2b57fe5b1415616ed257600073ffffffffffffffffffffffffffffffffffffffff168a610220015173ffffffffffffffffffffffffffffffffffffffff1614151515616d7257600080fd5b8960c001518b60c0015111151515616d8957600080fd5b60008b606001511115616dcb57616daf616da78c606001518a616685565b6127106166bd565b9450616dca8a61022001518c602001518d60e0015188617037565b5b60008b608001511115616e0d57616df1616de98c608001518a616685565b6127106166bd565b9350616e0c8a61022001518b602001518d60e0015187617037565b5b60008b60a001511115616e6d57616e33616e2b8c60a001518a616685565b6127106166bd565b9250616e6c8a61022001518c60200151600860009054906101000a900473ffffffffffffffffffffffffffffffffffffffff1686617037565b5b60008b60c001511115616ecd57616e93616e8b8c60c001518a616685565b6127106166bd565b9150616ecc8a61022001518b60200151600860009054906101000a900473ffffffffffffffffffffffffffffffffffffffff1685617037565b5b616f01565b616ee98b602001518c60e001518d606001516171ba565b616f008a602001518c60e001518d608001516171ba565b5b5b600073ffffffffffffffffffffffffffffffffffffffff168a610220015173ffffffffffffffffffffffffffffffffffffffff161415616ff857853410151515616f4b57600080fd5b896020015173ffffffffffffffffffffffffffffffffffffffff166108fc889081150290604051600060405180830381858888f19350505050158015616f95573d6000803e3d6000fd5b50616fa0348761666c565b90506000811115616ff7578a6020015173ffffffffffffffffffffffffffffffffffffffff166108fc829081150290604051600060405180830381858888f19350505050158015616ff5573d6000803e3d6000fd5b505b5b879850505050505050505092915050565b600080600181111561701757fe5b83600181111561702357fe5b148061702f5750600082115b905092915050565b60008111156171b457600360009054906101000a900473ffffffffffffffffffffffffffffffffffffffff1673ffffffffffffffffffffffffffffffffffffffff166315dacbea858585856040518563ffffffff167c0100000000000000000000000000000000000000000000000000000000028152600401808573ffffffffffffffffffffffffffffffffffffffff1673ffffffffffffffffffffffffffffffffffffffff1681526020018473ffffffffffffffffffffffffffffffffffffffff1673ffffffffffffffffffffffffffffffffffffffff1681526020018373ffffffffffffffffffffffffffffffffffffffff1673ffffffffffffffffffffffffffffffffffffffff168152602001828152602001945050505050602060405180830381600087803b15801561716d57600080fd5b505af1158015617181573d6000803e3d6000fd5b505050506040513d602081101561719757600080fd5b810190808051906020019092919050505015156171b357600080fd5b5b50505050565b6171e8600160009054906101000a900473ffffffffffffffffffffffffffffffffffffffff16848484617037565b505050565b6102e060405190810160405280600073ffffffffffffffffffffffffffffffffffffffff168152602001600073ffffffffffffffffffffffffffffffffffffffff168152602001600073ffffffffffffffffffffffffffffffffffffffff16815260200160008152602001600081526020016000815260200160008152602001600073ffffffffffffffffffffffffffffffffffffffff1681526020016000600181111561729757fe5b8152602001600060018111156172a957fe5b8152602001600060018111156172bb57fe5b8152602001600073ffffffffffffffffffffffffffffffffffffffff168152602001600060018111156172ea57fe5b81526020016060815260200160608152602001600073ffffffffffffffffffffffffffffffffffffffff16815260200160608152602001600073ffffffffffffffffffffffffffffffffffffffff168152602001600081526020016000815260200160008152602001600081526020016000815250905600a165627a7a723058205882e64d6c1c2df39f91e9ec4d0a44bd35cb18c7ac3c5a68498d5929332f57730029",
  "source": "pragma solidity ^0.4.13;\n\nimport \"./ExchangeCore.sol\";\nimport \"./ArrayUtils.sol\";\nimport \"./SaleKindInterface.sol\";\nimport \"./AuthenticatedProxy.sol\";\nimport \"./ERC20.sol\";\n\ncontract Exchange is ExchangeCore {\n\n    /**\n     * @dev Call guardedArrayReplace - library function exposed for testing.\n     */\n    function guardedArrayReplace(bytes array, bytes desired, bytes mask)\n        public\n        pure\n        returns (bytes)\n    {\n        ArrayUtils.guardedArrayReplace(array, desired, mask);\n        return array;\n    }\n\n    /**\n     * Test copy byte array\n     *\n     * @param arrToCopy Array to copy\n     * @return byte array\n     */\n    function testCopy(bytes arrToCopy)\n        public\n        pure\n        returns (bytes)\n    {\n        bytes memory arr = new bytes(arrToCopy.length);\n        uint index;\n        assembly {\n            index := add(arr, 0x20)\n        }\n        ArrayUtils.unsafeWriteBytes(index, arrToCopy);\n        return arr;\n    }\n\n    /**\n     * Test write address to bytes\n     *\n     * @param addr Address to write\n     * @return byte array\n     */\n    function testCopyAddress(address addr)\n        public\n        pure\n        returns (bytes)\n    {\n        bytes memory arr = new bytes(0x14);\n        uint index;\n        assembly {\n            index := add(arr, 0x20)\n        }\n        ArrayUtils.unsafeWriteAddress(index, addr);\n        return arr;\n    }\n\n    /**\n     * @dev Call calculateFinalPrice - library function exposed for testing.\n     */\n    function calculateFinalPrice(SaleKindInterface.Side side, SaleKindInterface.SaleKind saleKind, uint basePrice, uint extra, uint listingTime, uint expirationTime)\n        public\n        view\n        returns (uint)\n    {\n        return SaleKindInterface.calculateFinalPrice(side, saleKind, basePrice, extra, listingTime, expirationTime);\n    }\n\n    /**\n     * @dev Call hashOrder - Solidity ABI encoding limitation workaround, hopefully temporary.\n     */\n    function hashOrder_(\n        address[7] addrs,\n        uint[9] uints,\n        FeeMethod feeMethod,\n        SaleKindInterface.Side side,\n        SaleKindInterface.SaleKind saleKind,\n        AuthenticatedProxy.HowToCall howToCall,\n        bytes calldata,\n        bytes replacementPattern,\n        bytes staticExtradata)\n        public\n        pure\n        returns (bytes32)\n    {\n        return hashOrder(\n          Order(addrs[0], addrs[1], addrs[2], uints[0], uints[1], uints[2], uints[3], addrs[3], feeMethod, side, saleKind, addrs[4], howToCall, calldata, replacementPattern, addrs[5], staticExtradata, ERC20(addrs[6]), uints[4], uints[5], uints[6], uints[7], uints[8])\n        );\n    }\n\n    /**\n     * @dev Call hashToSign - Solidity ABI encoding limitation workaround, hopefully temporary.\n     */\n    function hashToSign_(\n        address[7] addrs,\n        uint[9] uints,\n        FeeMethod feeMethod,\n        SaleKindInterface.Side side,\n        SaleKindInterface.SaleKind saleKind,\n        AuthenticatedProxy.HowToCall howToCall,\n        bytes calldata,\n        bytes replacementPattern,\n        bytes staticExtradata)\n        public\n        pure\n        returns (bytes32)\n    { \n        return hashToSign(\n          Order(addrs[0], addrs[1], addrs[2], uints[0], uints[1], uints[2], uints[3], addrs[3], feeMethod, side, saleKind, addrs[4], howToCall, calldata, replacementPattern, addrs[5], staticExtradata, ERC20(addrs[6]), uints[4], uints[5], uints[6], uints[7], uints[8])\n        );\n    }\n\n    /**\n     * @dev Call validateOrderParameters - Solidity ABI encoding limitation workaround, hopefully temporary.\n     */\n    function validateOrderParameters_ (\n        address[7] addrs,\n        uint[9] uints,\n        FeeMethod feeMethod,\n        SaleKindInterface.Side side,\n        SaleKindInterface.SaleKind saleKind,\n        AuthenticatedProxy.HowToCall howToCall,\n        bytes calldata,\n        bytes replacementPattern,\n        bytes staticExtradata)\n        view\n        public\n        returns (bool)\n    {\n        Order memory order = Order(addrs[0], addrs[1], addrs[2], uints[0], uints[1], uints[2], uints[3], addrs[3], feeMethod, side, saleKind, addrs[4], howToCall, calldata, replacementPattern, addrs[5], staticExtradata, ERC20(addrs[6]), uints[4], uints[5], uints[6], uints[7], uints[8]);\n        return validateOrderParameters(\n          order\n        );\n    }\n\n    /**\n     * @dev Call validateOrder - Solidity ABI encoding limitation workaround, hopefully temporary.\n     */\n    function validateOrder_ (\n        address[7] addrs,\n        uint[9] uints,\n        FeeMethod feeMethod,\n        SaleKindInterface.Side side,\n        SaleKindInterface.SaleKind saleKind,\n        AuthenticatedProxy.HowToCall howToCall,\n        bytes calldata,\n        bytes replacementPattern,\n        bytes staticExtradata,\n        uint8 v,\n        bytes32 r,\n        bytes32 s)\n        view\n        public\n        returns (bool)\n    {\n        Order memory order = Order(addrs[0], addrs[1], addrs[2], uints[0], uints[1], uints[2], uints[3], addrs[3], feeMethod, side, saleKind, addrs[4], howToCall, calldata, replacementPattern, addrs[5], staticExtradata, ERC20(addrs[6]), uints[4], uints[5], uints[6], uints[7], uints[8]);\n        return validateOrder(\n          hashToSign(order),\n          order,\n          Sig(v, r, s)\n        );\n    }\n\n    /**\n     * @dev Call approveOrder - Solidity ABI encoding limitation workaround, hopefully temporary.\n     */\n    function approveOrder_ (\n        address[7] addrs,\n        uint[9] uints,\n        FeeMethod feeMethod,\n        SaleKindInterface.Side side,\n        SaleKindInterface.SaleKind saleKind,\n        AuthenticatedProxy.HowToCall howToCall,\n        bytes calldata,\n        bytes replacementPattern,\n        bytes staticExtradata,\n        bool orderbookInclusionDesired) \n        public\n    {\n        Order memory order = Order(addrs[0], addrs[1], addrs[2], uints[0], uints[1], uints[2], uints[3], addrs[3], feeMethod, side, saleKind, addrs[4], howToCall, calldata, replacementPattern, addrs[5], staticExtradata, ERC20(addrs[6]), uints[4], uints[5], uints[6], uints[7], uints[8]);\n        return approveOrder(order, orderbookInclusionDesired);\n    }\n\n    /**\n     * @dev Call cancelOrder - Solidity ABI encoding limitation workaround, hopefully temporary.\n     */\n    function cancelOrder_(\n        address[7] addrs,\n        uint[9] uints,\n        FeeMethod feeMethod,\n        SaleKindInterface.Side side,\n        SaleKindInterface.SaleKind saleKind,\n        AuthenticatedProxy.HowToCall howToCall,\n        bytes calldata,\n        bytes replacementPattern,\n        bytes staticExtradata,\n        uint8 v,\n        bytes32 r,\n        bytes32 s)\n        public\n    {\n\n        return cancelOrder(\n          Order(addrs[0], addrs[1], addrs[2], uints[0], uints[1], uints[2], uints[3], addrs[3], feeMethod, side, saleKind, addrs[4], howToCall, calldata, replacementPattern, addrs[5], staticExtradata, ERC20(addrs[6]), uints[4], uints[5], uints[6], uints[7], uints[8]),\n          Sig(v, r, s)\n        );\n    }\n\n    /**\n     * @dev Call calculateCurrentPrice - Solidity ABI encoding limitation workaround, hopefully temporary.\n     */\n    function calculateCurrentPrice_(\n        address[7] addrs,\n        uint[9] uints,\n        FeeMethod feeMethod,\n        SaleKindInterface.Side side,\n        SaleKindInterface.SaleKind saleKind,\n        AuthenticatedProxy.HowToCall howToCall,\n        bytes calldata,\n        bytes replacementPattern,\n        bytes staticExtradata)\n        public\n        view\n        returns (uint)\n    {\n        return calculateCurrentPrice(\n          Order(addrs[0], addrs[1], addrs[2], uints[0], uints[1], uints[2], uints[3], addrs[3], feeMethod, side, saleKind, addrs[4], howToCall, calldata, replacementPattern, addrs[5], staticExtradata, ERC20(addrs[6]), uints[4], uints[5], uints[6], uints[7], uints[8])\n        );\n    }\n\n    /**\n     * @dev Call ordersCanMatch - Solidity ABI encoding limitation workaround, hopefully temporary.\n     */\n    function ordersCanMatch_(\n        address[14] addrs,\n        uint[18] uints,\n        uint8[8] feeMethodsSidesKindsHowToCalls,\n        bytes calldataBuy,\n        bytes calldataSell,\n        bytes replacementPatternBuy,\n        bytes replacementPatternSell,\n        bytes staticExtradataBuy,\n        bytes staticExtradataSell)\n        public\n        view\n        returns (bool)\n    {\n        Order memory buy = Order(addrs[0], addrs[1], addrs[2], uints[0], uints[1], uints[2], uints[3], addrs[3], FeeMethod(feeMethodsSidesKindsHowToCalls[0]), SaleKindInterface.Side(feeMethodsSidesKindsHowToCalls[1]), SaleKindInterface.SaleKind(feeMethodsSidesKindsHowToCalls[2]), addrs[4], AuthenticatedProxy.HowToCall(feeMethodsSidesKindsHowToCalls[3]), calldataBuy, replacementPatternBuy, addrs[5], staticExtradataBuy, ERC20(addrs[6]), uints[4], uints[5], uints[6], uints[7], uints[8]);\n        Order memory sell = Order(addrs[7], addrs[8], addrs[9], uints[9], uints[10], uints[11], uints[12], addrs[10], FeeMethod(feeMethodsSidesKindsHowToCalls[4]), SaleKindInterface.Side(feeMethodsSidesKindsHowToCalls[5]), SaleKindInterface.SaleKind(feeMethodsSidesKindsHowToCalls[6]), addrs[11], AuthenticatedProxy.HowToCall(feeMethodsSidesKindsHowToCalls[7]), calldataSell, replacementPatternSell, addrs[12], staticExtradataSell, ERC20(addrs[13]), uints[13], uints[14], uints[15], uints[16], uints[17]);\n        return ordersCanMatch(\n          buy,\n          sell\n        );\n    }\n\n    /**\n     * @dev Return whether or not two orders' calldata specifications can match\n     * @param buyCalldata Buy-side order calldata\n     * @param buyReplacementPattern Buy-side order calldata replacement mask\n     * @param sellCalldata Sell-side order calldata\n     * @param sellReplacementPattern Sell-side order calldata replacement mask\n     * @return Whether the orders' calldata can be matched\n     */\n    function orderCalldataCanMatch(bytes buyCalldata, bytes buyReplacementPattern, bytes sellCalldata, bytes sellReplacementPattern)\n        public\n        pure\n        returns (bool)\n    {\n        if (buyReplacementPattern.length > 0) {\n          ArrayUtils.guardedArrayReplace(buyCalldata, sellCalldata, buyReplacementPattern);\n        }\n        if (sellReplacementPattern.length > 0) {\n          ArrayUtils.guardedArrayReplace(sellCalldata, buyCalldata, sellReplacementPattern);\n        }\n        return ArrayUtils.arrayEq(buyCalldata, sellCalldata);\n    }\n\n    /**\n     * @dev Call calculateMatchPrice - Solidity ABI encoding limitation workaround, hopefully temporary.\n     */\n    function calculateMatchPrice_(\n        address[14] addrs,\n        uint[18] uints,\n        uint8[8] feeMethodsSidesKindsHowToCalls,\n        bytes calldataBuy,\n        bytes calldataSell,\n        bytes replacementPatternBuy,\n        bytes replacementPatternSell,\n        bytes staticExtradataBuy,\n        bytes staticExtradataSell)\n        public\n        view\n        returns (uint)\n    {\n        Order memory buy = Order(addrs[0], addrs[1], addrs[2], uints[0], uints[1], uints[2], uints[3], addrs[3], FeeMethod(feeMethodsSidesKindsHowToCalls[0]), SaleKindInterface.Side(feeMethodsSidesKindsHowToCalls[1]), SaleKindInterface.SaleKind(feeMethodsSidesKindsHowToCalls[2]), addrs[4], AuthenticatedProxy.HowToCall(feeMethodsSidesKindsHowToCalls[3]), calldataBuy, replacementPatternBuy, addrs[5], staticExtradataBuy, ERC20(addrs[6]), uints[4], uints[5], uints[6], uints[7], uints[8]);\n        Order memory sell = Order(addrs[7], addrs[8], addrs[9], uints[9], uints[10], uints[11], uints[12], addrs[10], FeeMethod(feeMethodsSidesKindsHowToCalls[4]), SaleKindInterface.Side(feeMethodsSidesKindsHowToCalls[5]), SaleKindInterface.SaleKind(feeMethodsSidesKindsHowToCalls[6]), addrs[11], AuthenticatedProxy.HowToCall(feeMethodsSidesKindsHowToCalls[7]), calldataSell, replacementPatternSell, addrs[12], staticExtradataSell, ERC20(addrs[13]), uints[13], uints[14], uints[15], uints[16], uints[17]);\n        return calculateMatchPrice(\n          buy,\n          sell\n        );\n    }\n\n    /**\n     * @dev Call atomicMatch - Solidity ABI encoding limitation workaround, hopefully temporary.\n     */\n    function atomicMatch_(\n        address[14] addrs,\n        uint[18] uints,\n        uint8[8] feeMethodsSidesKindsHowToCalls,\n        bytes calldataBuy,\n        bytes calldataSell,\n        bytes replacementPatternBuy,\n        bytes replacementPatternSell,\n        bytes staticExtradataBuy,\n        bytes staticExtradataSell,\n        uint8[2] vs,\n        bytes32[5] rssMetadata)\n        public\n        payable\n    {\n\n        return atomicMatch(\n          Order(addrs[0], addrs[1], addrs[2], uints[0], uints[1], uints[2], uints[3], addrs[3], FeeMethod(feeMethodsSidesKindsHowToCalls[0]), SaleKindInterface.Side(feeMethodsSidesKindsHowToCalls[1]), SaleKindInterface.SaleKind(feeMethodsSidesKindsHowToCalls[2]), addrs[4], AuthenticatedProxy.HowToCall(feeMethodsSidesKindsHowToCalls[3]), calldataBuy, replacementPatternBuy, addrs[5], staticExtradataBuy, ERC20(addrs[6]), uints[4], uints[5], uints[6], uints[7], uints[8]),\n          Sig(vs[0], rssMetadata[0], rssMetadata[1]),\n          Order(addrs[7], addrs[8], addrs[9], uints[9], uints[10], uints[11], uints[12], addrs[10], FeeMethod(feeMethodsSidesKindsHowToCalls[4]), SaleKindInterface.Side(feeMethodsSidesKindsHowToCalls[5]), SaleKindInterface.SaleKind(feeMethodsSidesKindsHowToCalls[6]), addrs[11], AuthenticatedProxy.HowToCall(feeMethodsSidesKindsHowToCalls[7]), calldataSell, replacementPatternSell, addrs[12], staticExtradataSell, ERC20(addrs[13]), uints[13], uints[14], uints[15], uints[16], uints[17]),\n          Sig(vs[1], rssMetadata[2], rssMetadata[3]),\n          rssMetadata[4]\n        );\n    }\n\n}\n",
  "sourcePath": "/home/trinh.van.tan/opensea/opensea-totalContract/contracts/Exchange.sol",
  "compiler": {
    "name": "solc",
    "version": "0.4.24+commit.e67f0147.Emscripten.clang"
  },
  "schemaVersion": "2.0.1",
  "updatedAt": "2021-01-18T10:22:32.532Z"
}